{
  "_format": "hh-sol-artifact-1",
  "contractName": "Lottery",
  "sourceName": "contracts/Lottery.sol",
  "abi": [
    {
      "inputs": [],
      "stateMutability": "nonpayable",
      "type": "constructor"
    },
    {
      "inputs": [],
      "name": "enter",
      "outputs": [],
      "stateMutability": "payable",
      "type": "function"
    },
    {
      "inputs": [],
      "name": "getBalance",
      "outputs": [
        {
          "internalType": "uint256",
          "name": "",
          "type": "uint256"
        }
      ],
      "stateMutability": "view",
      "type": "function"
    },
    {
      "inputs": [],
      "name": "getLotteryId",
      "outputs": [
        {
          "internalType": "uint256",
          "name": "",
          "type": "uint256"
        }
      ],
      "stateMutability": "view",
      "type": "function"
    },
    {
      "inputs": [],
      "name": "getPlayers",
      "outputs": [
        {
          "internalType": "address payable[]",
          "name": "",
          "type": "address[]"
        }
      ],
      "stateMutability": "view",
      "type": "function"
    },
    {
      "inputs": [],
      "name": "getRandomNumber",
      "outputs": [
        {
          "internalType": "uint256",
          "name": "",
          "type": "uint256"
        }
      ],
      "stateMutability": "view",
      "type": "function"
    },
    {
      "inputs": [],
      "name": "getWinners",
      "outputs": [
        {
          "internalType": "address[]",
          "name": "",
          "type": "address[]"
        }
      ],
      "stateMutability": "view",
      "type": "function"
    },
    {
      "inputs": [],
      "name": "lotteryId",
      "outputs": [
        {
          "internalType": "uint256",
          "name": "",
          "type": "uint256"
        }
      ],
      "stateMutability": "view",
      "type": "function"
    },
    {
      "inputs": [],
      "name": "owner",
      "outputs": [
        {
          "internalType": "address payable",
          "name": "",
          "type": "address"
        }
      ],
      "stateMutability": "view",
      "type": "function"
    },
    {
      "inputs": [],
      "name": "pickWinner",
      "outputs": [],
      "stateMutability": "nonpayable",
      "type": "function"
    },
    {
      "inputs": [
        {
          "internalType": "uint256",
          "name": "",
          "type": "uint256"
        }
      ],
      "name": "players",
      "outputs": [
        {
          "internalType": "address payable",
          "name": "",
          "type": "address"
        }
      ],
      "stateMutability": "view",
      "type": "function"
    },
    {
      "inputs": [
        {
          "internalType": "uint256",
          "name": "",
          "type": "uint256"
        }
      ],
      "name": "winners",
      "outputs": [
        {
          "internalType": "address",
          "name": "",
          "type": "address"
        }
      ],
      "stateMutability": "view",
      "type": "function"
    }
  ],
  "bytecode": "0x608060405234801561001057600080fd5b50336000806101000a81548173ffffffffffffffffffffffffffffffffffffffff021916908373ffffffffffffffffffffffffffffffffffffffff1602179055506000600381905550610d8b806100686000396000f3fe60806040526004361061009c5760003560e01c8063a2fb117511610064578063a2fb117514610164578063dbdff2c1146101a1578063df15c37e146101cc578063e580f47b146101f7578063e97dcb6214610222578063f71d96cb1461022c5761009c565b806312065fe0146100a15780635d495aea146100cc5780638b5b9ccc146100e35780638da5cb5b1461010e578063900aafaf14610139575b600080fd5b3480156100ad57600080fd5b506100b6610269565b6040516100c39190610816565b60405180910390f35b3480156100d857600080fd5b506100e1610271565b005b3480156100ef57600080fd5b506100f8610486565b6040516101059190610921565b60405180910390f35b34801561011a57600080fd5b50610123610514565b6040516101309190610952565b60405180910390f35b34801561014557600080fd5b5061014e610538565b60405161015b9190610816565b60405180910390f35b34801561017057600080fd5b5061018b6004803603810190610186919061099e565b610542565b60405161019891906109ec565b60405180910390f35b3480156101ad57600080fd5b506101b6610581565b6040516101c39190610816565b60405180910390f35b3480156101d857600080fd5b506101e16105d5565b6040516101ee9190610ac5565b60405180910390f35b34801561020357600080fd5b5061020c610663565b6040516102199190610816565b60405180910390f35b61022a610669565b005b34801561023857600080fd5b50610253600480360381019061024e919061099e565b610717565b6040516102609190610952565b60405180910390f35b600047905090565b60008054906101000a900473ffffffffffffffffffffffffffffffffffffffff1673ffffffffffffffffffffffffffffffffffffffff163373ffffffffffffffffffffffffffffffffffffffff16146102c957600080fd5b60006001805490506102d9610581565b6102e39190610b16565b9050600181815481106102f9576102f8610b47565b5b9060005260206000200160009054906101000a900473ffffffffffffffffffffffffffffffffffffffff1673ffffffffffffffffffffffffffffffffffffffff166108fc479081150290604051600060405180830381858888f19350505050158015610369573d6000803e3d6000fd5b506002600182815481106103805761037f610b47565b5b9060005260206000200160009054906101000a900473ffffffffffffffffffffffffffffffffffffffff169080600181540180825580915050600190039060005260206000200160009091909190916101000a81548173ffffffffffffffffffffffffffffffffffffffff021916908373ffffffffffffffffffffffffffffffffffffffff1602179055506003600081548092919061041e90610ba5565b9190505550600067ffffffffffffffff81111561043e5761043d610bee565b5b60405190808252806020026020018201604052801561046c5781602001602082028036833780820191505090505b5060019080519060200190610482929190610756565b5050565b6060600180548060200260200160405190810160405280929190818152602001828054801561050a57602002820191906000526020600020905b8160009054906101000a900473ffffffffffffffffffffffffffffffffffffffff1673ffffffffffffffffffffffffffffffffffffffff16815260200190600101908083116104c0575b5050505050905090565b60008054906101000a900473ffffffffffffffffffffffffffffffffffffffff1681565b6000600354905090565b6002818154811061055257600080fd5b906000526020600020016000915054906101000a900473ffffffffffffffffffffffffffffffffffffffff1681565b60008060009054906101000a900473ffffffffffffffffffffffffffffffffffffffff16426040516020016105b7929190610c86565b6040516020818303038152906040528051906020012060001c905090565b6060600280548060200260200160405190810160405280929190818152602001828054801561065957602002820191906000526020600020905b8160009054906101000a900473ffffffffffffffffffffffffffffffffffffffff1673ffffffffffffffffffffffffffffffffffffffff168152602001906001019080831161060f575b5050505050905090565b60035481565b6611c37937e0800034146106b2576040517f08c379a00000000000000000000000000000000000000000000000000000000081526004016106a990610d35565b60405180910390fd5b6001339080600181540180825580915050600190039060005260206000200160009091909190916101000a81548173ffffffffffffffffffffffffffffffffffffffff021916908373ffffffffffffffffffffffffffffffffffffffff160217905550565b6001818154811061072757600080fd5b906000526020600020016000915054906101000a900473ffffffffffffffffffffffffffffffffffffffff1681565b8280548282559060005260206000209081019282156107cf579160200282015b828111156107ce5782518260006101000a81548173ffffffffffffffffffffffffffffffffffffffff021916908373ffffffffffffffffffffffffffffffffffffffff16021790555091602001919060010190610776565b5b5090506107dc91906107e0565b5090565b5b808211156107f95760008160009055506001016107e1565b5090565b6000819050919050565b610810816107fd565b82525050565b600060208201905061082b6000830184610807565b92915050565b600081519050919050565b600082825260208201905092915050565b6000819050602082019050919050565b600073ffffffffffffffffffffffffffffffffffffffff82169050919050565b60006108888261085d565b9050919050565b6108988161087d565b82525050565b60006108aa838361088f565b60208301905092915050565b6000602082019050919050565b60006108ce82610831565b6108d8818561083c565b93506108e38361084d565b8060005b838110156109145781516108fb888261089e565b9750610906836108b6565b9250506001810190506108e7565b5085935050505092915050565b6000602082019050818103600083015261093b81846108c3565b905092915050565b61094c8161087d565b82525050565b60006020820190506109676000830184610943565b92915050565b600080fd5b61097b816107fd565b811461098657600080fd5b50565b60008135905061099881610972565b92915050565b6000602082840312156109b4576109b361096d565b5b60006109c284828501610989565b91505092915050565b60006109d68261085d565b9050919050565b6109e6816109cb565b82525050565b6000602082019050610a0160008301846109dd565b92915050565b600081519050919050565b600082825260208201905092915050565b6000819050602082019050919050565b610a3c816109cb565b82525050565b6000610a4e8383610a33565b60208301905092915050565b6000602082019050919050565b6000610a7282610a07565b610a7c8185610a12565b9350610a8783610a23565b8060005b83811015610ab8578151610a9f8882610a42565b9750610aaa83610a5a565b925050600181019050610a8b565b5085935050505092915050565b60006020820190508181036000830152610adf8184610a67565b905092915050565b7f4e487b7100000000000000000000000000000000000000000000000000000000600052601260045260246000fd5b6000610b21826107fd565b9150610b2c836107fd565b925082610b3c57610b3b610ae7565b5b828206905092915050565b7f4e487b7100000000000000000000000000000000000000000000000000000000600052603260045260246000fd5b7f4e487b7100000000000000000000000000000000000000000000000000000000600052601160045260246000fd5b6000610bb0826107fd565b91507fffffffffffffffffffffffffffffffffffffffffffffffffffffffffffffffff821415610be357610be2610b76565b5b600182019050919050565b7f4e487b7100000000000000000000000000000000000000000000000000000000600052604160045260246000fd5b60008160601b9050919050565b6000610c3582610c1d565b9050919050565b6000610c4782610c2a565b9050919050565b610c5f610c5a8261087d565b610c3c565b82525050565b6000819050919050565b610c80610c7b826107fd565b610c65565b82525050565b6000610c928285610c4e565b601482019150610ca28284610c6f565b6020820191508190509392505050565b600082825260208201905092915050565b7f4c6f747465727920656e7472616e6365206665652073686f756c64206265206560008201527f7175616c20746f20302e30303520457468657273000000000000000000000000602082015250565b6000610d1f603483610cb2565b9150610d2a82610cc3565b604082019050919050565b60006020820190508181036000830152610d4e81610d12565b905091905056fea2646970667358221220e7464c89ac7b6845285d3462fcbf8e5a60a100f70cad3074c7b6b173b6fa301264736f6c63430008090033",
  "linkReferences": {},
  "deployedLinkReferences": {}
}